:100000000C9424020C944C020C944C020C944C0260
:100010000C944C020C944C020C944C020C944C0228
:100020000C944C020C944C020C944C020C946410F2
:100030000C944C020C944C020C944C020C944C0208
:100040000C941A100C944C020C944C020C944C021C
:100050000C944C020C944C020C944C020C944C02E8
:100060000C944C020C944C020101FF030101F703B4
:100070004576656E204861726465720048617264FD
:10008000004D656469756D00456173790054757440
:100090006F7269616C00506C6179210017534400E4
:1000A00016137800161314001510200015201000E8
:1000B000540A03E181867F3E186D830F0F0E018382
:1000C000866033186DC3198F1803C38E6033186DA3
:1000D000E330CF1803C39E603630CDE360CF3006E7
:1000E000C79E7E3E30CDB360CF300CC6F660333055
:1000F000D9B660CF33CFCCF66061B0DB1E60CF30B5
:10010000D86CE6C061B0DB1E618F19986CC6C06305
:10011000B19B0E330F0FB078C6FF7E1F1B061E0F5C
:100120004E696E6A612047616D65006C0068000071
:10013000000000240027002A0000000000250028FD
:10014000002B000500893008023802497868140045
:10015000006162736F726220746865736500736C0E
:1001600069636520746865736500796F75000808B8
:100170000101010101010101080E209050301C3ED7
:100180002A3E1C3E1C1C1414080E00000000000037
:10019000000102002020E0C0080E209050301C3EDC
:1001A0002A3E1C3E5D5D1414880081007C007000B6
:1001B00096008D0005006801380100000500380137
:1001C000680100000A0A153A49676E6F7265006D92
:1001D000560A0A504C45415345205455524E204F23
:1001E000464620004C4F5720424154544552592115
:1001F000200003053F213F1208120A100A0E1C0EB0
:100200000C1E0C141A14161F161E131E1E1B1E1E67
:100210001F1E3F213F3A2F3A173D173F213F181F1E
:1002200002040A041F0E04040E1F0A1F0A0E0E1FEA
:1002300004110E2E252E2F2A2E262929021F0208F0
:100240001F08150E04040E150E15151B151B0406AC
:1002500004040C040000000017000300031F0A1F21
:1002600016371A1904130A153A000300000E11116B
:100270000E000A040A040E040030000404040010F6
:10028000001804031F111F121F101D151711151F31
:1002900007041F17151D1F151D01011F1F151F170F
:1002A000151F000A00003200040A110A0A0A110A86
:1002B000040115020E11171E051E1F150A0E110A44
:1002C0001F110E1F15111F05010E111D1F041F11F7
:1002D0001F1108100F1F041B1F10101F061F1E04E4
:1002E0000F0E110E1F09060E112E1F051A121509E9
:1002F000011F011F101F0F180F1F0C1F1B041B03D2
:100300001C03191513001F11030418111F0002010B
:10031000022020200001020C121E1F120C0C1212CF
:100320000C121F0C1A14041E05242A1E1F021C1472
:100330001D1020201D1F0814111F101E041E1E0258
:100340001C0C120C3E0A040C123E1E040214160A67
:10035000020F120E101E0E100E1E081E120C122678
:10036000281E322A26041E21001F00211E0401021D
:10037000013F213FF6E8DBCFC3B8AEA49B928A824F
:100380007B746E68625C57524E4945413E3A373441
:10039000312E2C2927252321450068010000172B29
:1003A000152010204C4F4144455200172B162013A6
:1003B00014000A4E6F2053442063617264206F72F0
:1003C0000A6E6F204C4F414445522E4845580A0A48
:1003D000153A45786974001D20466C617368696E32
:1003E000670A20206C6F616465722E2E2E0A0A4403
:1003F0004F4E2754205455524E204F464621000060
:10040000000000230026002900040404040404045E
:1004100004020202020202030303030303010204B3
:100420000810204080010204081020010204081076
:100430002000000008000201000003040700000083
:10044000000000000000F91611241FBECFEFD8E015
:10045000DEBFCDBF11E0A0E0B1E0E2E0F3E302C017
:1004600005900D92A835B107D9F724E0A8E5B1E0D1
:1004700001C01D92A130B207E1F712E0C4E2D2E060
:1004800004C02197FE010E947919C332D107C9F730
:100490000E94A5100C947F190C940000EAE7F3E089
:1004A00014AE12AE1092C3031092C20315AE109296
:1004B000790110927801109277011092B40008959A
:1004C000CF93DF93EC010E944E02EAE7F3E0D3AB57
:1004D000C2AB10AE17AA81E086A389E083AF16AE47
:1004E0001092BA031092BC03DF91CF910895E0916E
:1004F000A8038E2F90E0880F991FE091A603F0913A
:10050000A703E80FF91F859194918F3F980719F47D
:1005100010929F0308959093AB039927880F991F1A
:10052000E091A903F091AA03E80FF91F8591949136
:100530000E9460028091A8038F5F8093A8030895B2
:1005400090E0880F991FE091AE03F091AF03E80FA0
:10055000F91F259134913093BF032093BE03F90115
:10056000859194919091A303989F802D112480935D
:10057000C003F90165917491472F50E08417150667
:1005800029F020F0F90125913491832F989F802D37
:1005900011248093C1030895DC01ED91FC91019039
:1005A000F081E02D0994EF92FF920F931F93CF9368
:1005B000DF938C017B01D0E0C0E0F701EC0FFD1F61
:1005C0006491662361F0D801ED91FC910190F08176
:1005D000E02DC8010995892B11F02196EECFCE01AF
:1005E000DF91CF911F910F91FF90EF900895AF92FF
:1005F000BF92CF92DF92EF92FF920F931F93CF9310
:10060000DF936C017B018B01040F151FEB015E0171
:10061000AE18BF08C017D10759F06991D601ED9106
:10062000FC910190F081E02DC6010995892B79F7A5
:10063000C501DF91CF911F910F91FF90EF90DF9057
:10064000CF90BF90AF900895833081F028F481302F
:1006500099F08230A9F008958730A9F08830C9F068
:100660008430B1F4809180008F7D03C08091800040
:100670008F7780938000089584B58F7784BD089527
:1006800084B58F7DFBCF8091B0008F778093B000D1
:1006900008958091B0008F7DF9CF1F93CF93DF93A2
:1006A000282F30E0F901EF5CFB4F8491F901E35E04
:1006B000FB4FD491F901E75FFB4FC491CC23A9F024
:1006C000162F81110E942403EC2FF0E0EE0FFF1F84
:1006D000E75CFE4FA591B4918FB7F894EC9111119E
:1006E00008C0D095DE23DC938FBFDF91CF911F919F
:1006F0000895DE2BF8CFCF93C82FF89460E0809157
:10070000D7030E944D038091D80318161CF460E0B3
:100710000E944D03CEBD00000DB407FEFDCF8EB587
:100720008091D80318161CF461E00E944D03789460
:10073000CF9108950F931F93CF938091D4038F5F30
:100740008093D4030AE711E0C0E08C2F80640E94FC
:100750007B0380E80E947B0361E08091D7030E94C5
:100760004D038091D80318161CF460E00E944D03DD
:10077000F80184E591919EBD00000DB407FEFDCF08
:100780009EB58150B9F78091D80318161CF461E02A
:100790000E944D03CF5F0C5A1F4FC630B1F680E464
:1007A000CF911F910F910C947B03CF93DF9390E037
:1007B000FC01E35EFB4F2491875F9B4FFC0184911A
:1007C0008823C9F090E0880F991FFC01E15DFE4F7E
:1007D000A591B491FC01E75CFE4FC591D4916111E4
:1007E0000DC09FB7F8948C91209582238C938881BB
:1007F000282328839FBFDF91CF910895623051F461
:100800009FB7F8943C91822F809583238C93E88145
:100810002E2BEFCF8FB7F894EC912E2B2C938FBF0C
:10082000EACFFF920F931F93CF93DF93CAE7D3E0F2
:10083000FF24FA9462E08A850E94D5032A8530E07D
:10084000F901EF5CFB4F8491F901E35EFB4F0491EA
:10085000F901E75FFB4F14911123E1F081110E9430
:100860002403E12FF0E0EE0FFF1FE150FC4FA591B4
:10087000B491EC9189890E2369F0811113C02196FE
:1008800083E0C138D807B1F6DF91CF911F910F9166
:10089000FF90089589898F5F898B60E08A850E9427
:1008A000D503EDCF8F3F11F4198AF7CFF98AF5CF31
:1008B0001F93CF93DF93182FEB0161E00E94D503C4
:1008C000209739F460E0812FDF91CF911F910C9434
:1008D0004D03CF3FD10511F461E0F5CFE12FF0E0FA
:1008E000EF5CFB4FE491E33031F140F4E130B1F0E3
:1008F000E230E1F0C038D1057CF7E4CFE73029F1F0
:10090000E83059F1E430B1F7809180008062809343
:100910008000D0938B00C0938A0004C084B58068A7
:1009200084BDC7BDDF91CF911F91089584B58062CA
:1009300084BDC8BDF7CF809180008068809380001F
:10094000D0938900C0938800EDCF8091B00080687B
:100950008093B000C093B300E5CF8091B000806277
:100960008093B000C093B400DDCF8E50806480933C
:100970007C0080917A00806480937A0080917A0074
:1009800086FDFCCF80917800909179000895809148
:100990009E038F7149F584E10E94B504BC01990F53
:1009A000880B990B0E943C1826EE3FE34EEC50E476
:1009B0000E94A0180E940B189B01709395036093EE
:1009C0009403672BB9F084E080939303E6E9F3E0A6
:1009D00080E0419151912417350718F480939303D7
:1009E00008958F5F8430A9F780919E038F5F809375
:1009F0009E0308958FEF80939303F6CF3FB7F8944B
:100A000080915A0190915B01A0915C01B0915D01D0
:100A100026B5A89B05C02F3F19F00196A11DB11D59
:100A20003FBFBA2FA92F982F8827BC01CD01620F95
:100A3000711D811D911D42E0660F771F881F991F50
:100A40004A95D1F708958F929F92AF92BF92CF921D
:100A5000DF92EF92FF924B015C010E94FE046B015A
:100A60007C010E94FE046C197D098E099F09683E75
:100A7000734081059105A8F321E0821A9108A1082D
:100A8000B10888EEC80E83E0D81EE11CF11C811469
:100A90009104A104B10429F7FF90EF90DF90CF906B
:100AA000BF90AF909F908F9008954F925F927F92EA
:100AB0008F929F92AF92BF92CF92DF92EF92FF926E
:100AC0000F931F93CF93DF93EC01F901E4903196DC
:100AD00084910E2C000CFF08062F062E000C110B23
:100AE000F801EE0DFF1D1E161F060CF0E1C040338D
:100AF0000CF0DEC0A82FA42E042E000CBB0865014C
:100B0000C80ED11C87FDDA941C141D040CF0D0C053
:100B10002E5F3F4F670177E0C70ED11CD7FE04C0A0
:100B200067019EE0C90ED11C93E0D594C7949A95B5
:100B3000E1F747FF0AC0A42FA80FCA9CC001CB9CB5
:100B4000900D1124281B390B40E08A2F0A2E000C2F
:100B5000990B840F911D47FD9A95C19714F0A0E35E
:100B6000A41BF8A0E535F10514F0E4E5F0E09E2FB4
:100B7000CC85C427542F577081E001C0880F5A9547
:100B8000EAF7459545954595F80174E54702E00D6E
:100B9000F11D1124AF0146585E4FD0E04A2EAA0F36
:100BA0005508EE24E394DD24D41515040CF080C020
:100BB000F9017491F1E0FF1219C0A62E8A01F90122
:100BC000B0E8BB2EA91608F052C09B2C972221F04A
:100BD000D8019C90982A9C92B69421F431967491F5
:100BE000A0E8BA2EA3940F5F1F4FECCFF1101BC0EB
:100BF000882E8094A62E8A01F901B0E8BB2EA91692
:100C000008F035C09B2C972221F0D8019C909820A9
:100C10009C92B69421F431967491A0E8BA2EA394D4
:100C20000F5F1F4FECCFB3E0FB122AC0882E8094D9
:100C3000962E8A01F901B0E8AB2E9916B8F4BA2CB9
:100C4000B72241F0D801BC907C2E792470FE0CC0F4
:100C5000B82ABC92A69421F431967491A0E8AA2EE9
:100C600093940F5F1F4FE9CFB820F3CFCE25880FA5
:100C700019F44C5A5F4F81E0DF5F2C0D3D1D94CF7E
:100C8000A62E8A01F901B0E8BB2EA91680F79B2C8D
:100C9000972221F0D8019C9098269C92B69421F43A
:100CA00031967491A0E8BA2EA3940F5F1F4FEDCF39
:100CB000DF91CF911F910F91FF90EF90DF90CF9038
:100CC000BF90AF909F908F907F905F904F900895CE
:100CD000DC01643570F5403360F590968C91909707
:100CE000E62F062E000CFF0B242F25952595259524
:100CF00094E52902E00DF11D1124E658FE4F2081F4
:100D0000342F37708230B1F4822F90E0032E02C06E
:100D1000959587950A94E2F780958170811114C0AA
:100D200081E090E001C0880F3A95EAF78095822330
:100D300080830895833091F71C968C91817064278D
:100D4000609561708613ECCF81E090E001C0880F60
:100D50003A95EAF7822BECCFAF92BF92CF92DF9217
:100D6000EF92FF920F931F93CF93DF93182F062FCD
:100D7000C0E0D3E08AEFD82E9EEFE92E842F847056
:100D8000C82E842F8270B82E842F8870A82E4170B0
:100D9000F42ECF5F8C2F880F8F5FE80ECC2081F070
:100DA000402F4D0F612F6C0F88EC93E00E94680676
:100DB000402F4C0F6D2F610F88EC93E00E94680666
:100DC000BB2081F0402F4D1B612F6C0F88EC93E00E
:100DD0000E946806402F4C1B6D2F610F88EC93E03A
:100DE0000E946806AA2081F0402F4C0F612F6D1BD6
:100DF00088EC93E00E946806402F4D0F612F6C1B1A
:100E000088EC93E00E946806FF2081F0402F4C1B85
:100E1000612F6D1B88EC93E00E946806402F4D1BEC
:100E2000612F6C1B88EC93E00E946806CD173CF4A0
:100E3000E7FCAFCFD150D394D394ED0CAACFDF9180
:100E4000CF911F910F91FF90EF90DF90CF90BF90C7
:100E5000AF9008950F931F93CF93DF93D82F162F42
:100E6000042FC0E0C0174CF4412F4C0F6D2F88ECBD
:100E700093E00E946806CF5FF5CFDF91CF911F917D
:100E80000F9108958F929F92AF92BF92CF92DF926F
:100E9000EF92FF920F931F93CF93DF93082FA62E0D
:100EA000842E922E83E0F82ED0E0C3E09AEFE92E54
:100EB0001EEFBB24B394B20EDF5F1F0D4C2F440F07
:100EC0006A2D6C1BC92CCF0CDA2CDD1A81E04B0D7E
:100ED000881215C0802F8D0F0E942A074C2D6D2D72
:100EE0008C2F800F0E942A07DC1794F417FD04C092
:100EF000C150E394E3941E0DF394F394DDCF802F5F
:100F00008D1B0E942A074C2D6D2D802F8C1BEACF44
:100F1000DF91CF911F910F91FF90EF90DF90CF90D5
:100F2000BF90AF909F908F900895EF92FF920F9394
:100F30001F93CF93DF938C01F62ED42FE22EC0E0C7
:100F4000CE1544F46F2D6C0F4D2FC8010E9468061A
:100F5000CF5FF6CFDF91CF911F910F91FF90EF9070
:100F600008951F93CF93DF93C82F162F2EE4482F99
:100F700063E088EC93E00E949507DC2FD10F4FEFE0
:100F80004D0F2EE463E088EC93E00E949507165025
:100F9000CD5F412F6C2F80E00E942A07412F6C2FDC
:100FA00083E50E942A0741E06C2F83E00E94AC0693
:100FB00042E06C2F80E50E94AC06D45044E06D2FD7
:100FC00080E50E94AC0648E06D2F83E0DF91CF9171
:100FD0001F910C94AC06DF92EF92FF920F931F9338
:100FE000CF93DF937C01D62FD22EC42F002E000C7E
:100FF000110B040F111D47FD1A958C2F0C2E000CA0
:10100000990B8017910744F42D2D4C2F6D2FC7019C
:101010000E949507CF5FF1CFDF91CF911F910F9184
:10102000FF90EF90DF9008954F925F926F927F92C2
:101030008F929F92AF92BF92CF92DF92EF92FF92E8
:101040000F931F93CF93DF93EC016A3049F4288507
:101050009D818A85299F800D11248A871986A6C0C3
:101060006D3009F4A3C0898483E588150CF487C02A
:10107000DA848FE28D150CF482C018852C81215002
:10108000330B129FC001139F900D1124880D911DE9
:1010900087FC9A95181619060CF071C02D818D2DBC
:1010A0000D2C000C990B129F800D911D1124181608
:1010B00019060CF064C078A0C82C912CE62EF12CF7
:1010C000292D092C000C330B8C8190E0281739074F
:1010D0000CF054C00197E0E02817390771F0E89E42
:1010E000F001E99EF00DF89EF00D11242E0F3F1F28
:1010F000EE8DFF8DE20FF31FE4915D2C612C492CE6
:10110000480C2D81862D062C000C990B28171906EA
:1011100091F18CF1AE2EB12CE0FF16C0113061F4CC
:10112000462D4D0D642DCE010E946806F501F59502
:10113000E7956394510EE5CF012F212F452D6C2D9E
:10114000CE010E94EB07F2CF89A198A1891771F314
:1011500088A3113041F4462D4D0D642DCE010E941F
:10116000680678A2E3CF012F212F452D6C2DCE01EB
:101170000E94EB07F6CF9394C10EA2CF78A22885E8
:101180003C818985239F800D112489879F81992324
:1011900069F0082E000C990B44E550E0239F40199C
:1011A00051091124481759070CF452CF81E090E0FF
:1011B000DF91CF911F910F91FF90EF90DF90CF9033
:1011C000BF90AF909F908F907F906F905F904F9067
:1011D0000895089590E080E008958F929F92AF92D5
:1011E000BF92CF92DF92EF92FF92C0909403D09083
:1011F0009503C094D094F12CE12C0E94FE044B0185
:101200005C010E94FE04A501940120953095409553
:10121000509560957095809590950E9435199B0129
:10122000AC01C701B6010E9435194B015C01C090A9
:101230007B03D0907C03F12CE12C0E94FE046C0D0A
:101240007D1D8E1D9F1D680D791D8A1D9B1D6115BD
:1012500071058105910551F0FF90EF90DF90CF90DF
:10126000BF90AF909F908F900C949F17FF90EF903E
:10127000DF90CF90BF90AF909F908F9008950E9485
:10128000501724E030E040E050E00E94A8176F5F64
:101290007F4F8F4F9F4F709368016093670181E08C
:1012A00090E090930201809301010895FB01019069
:1012B0000020E9F73197AF01461B570BDC01ED9198
:1012C000FC910280F381E02D0994CF93DF93BC0160
:1012D00088EC93E00E94D302EC0167E171E088ECB6
:1012E00093E00E9456098C0F9D1FDF91CF910895C6
:1012F000EAE7F1E088EF91E0DF019C011D922150C7
:101300003040E1F71092D1031092D20367ED73E001
:1013100088EC93E00E94D3020E949A038CB583600C
:101320008CBD8DB58E7F8DBD8AE191E0EEEFFFE340
:1013300009951092CE0382EB93E00E9465090E940A
:101340009A030E94110480918F03813039F062E387
:1013500070E080E090E00E942305F3CF08958F9223
:101360009F92AF92BF92EF92FF920F931F93CF93F2
:10137000DF93CDB7DEB7A1970FB6F894DEBF0FBEEF
:10138000CDBF7C01FA01CB0119A2223008F42AE07A
:101390008E010F5D1F4F822E912CB12CA12CBF010D
:1013A000A50194010E94DA17F901CA016A300CF50F
:1013B000605DD8016E938D01232B242B252B79F7AB
:1013C00090E080E0109721F0BD01C7010E9456090E
:1013D000A1960FB6F894DEBF0FBECDBFDF91CF91BF
:1013E0001F910F91FF90EF90BF90AF909F908F90C3
:1013F0000895695CDECFCF92DF92EF92FF920F9358
:101400001F93CF93DF936B01770FEE08FF08F7FE72
:101410001BC0EC016DE20E94CC028C0144275527D1
:10142000BA014C195D096E097F092AE0CE010E94BC
:10143000AF09800F911FDF91CF911F910F91FF9006
:10144000EF90DF90CF9008952AE0B701A601DF91D9
:10145000CF911F910F91FF90EF90DF90CF900C9460
:10146000AF094F925F926F927F928F929F92AF924D
:10147000BF92CF92DF92EF92FF920F931F93CF9381
:10148000DF9300D000D01F92CDB7DEB74091FA03B2
:101490005091FB036091FC037091FD032FB7F8940A
:1014A0008091730190917401A0917501B0917601C2
:1014B0002FBF481B590B6A0B7B0B8091F90390E0FF
:1014C000B0E0A0E0C090F503D090F603E090F70301
:1014D000F090F80384179507A607B70708F0CEC069
:1014E000C114D104E104F10409F4C8C02FB7F89481
:1014F0008091730190917401A0917501B091760172
:101500002FBF2091F903820F911DA11DB11D809362
:10151000FA039093FB03A093FC03B093FD03809127
:10152000EB039091EC03A091ED03B091EE030196D3
:10153000A11DB11D8093EB039093EC03A093ED03E9
:10154000B093EE031092F5031092F6031092F70396
:101550001092F8030E94FE046093F1037093F2036B
:101560008093F3039093F40380917B0390917C0329
:101570002FE0289FA001299F500D11245A834983F1
:1015800085E10E94B504A981BA818A0F9B1FB4E04E
:1015900096958795BA95E1F790937C0380937B03AA
:1015A00020917A03222309F448C060917E03262FFC
:1015B00030E050E040E029833A834B835C83C09065
:1015C0007F03D12CF12CE12C4091820350918303B5
:1015D0004A01B12CA12C2091800330918103290173
:1015E000712C612C8217930728F09C01481759072A
:1015F00008F49A0150E040E02419350946095709DA
:1016000069817A818B819C816C197D098E099F0982
:101610000E943519A5019401241935094609570975
:101620000E94A817C20ED31EE41EF51EC0927D03B1
:101630006C2D70E085E00E9458040E941104809196
:10164000960390919703892B11F00E94C70481E0C3
:101650000F900F900F900F900F90DF91CF911F91EF
:101660000F91FF90EF90DF90CF90BF90AF909F9041
:101670008F907F906F905F904F900895CD28CE28E7
:10168000CF2809F033C18091910381508E3F18F526
:10169000809190038130F9F48091A4038F5F609171
:1016A000A50387FD09C0082E000C990B70E06F5F41
:1016B0007F4F0E945119682F6093A4038BEA93E037
:1016C0009093FF038093FE0388E48093000488E9ED
:1016D00093E00E9460028091910381508E3F70F4EC
:1016E00080918F03813009F0E2C28EE993E09093FC
:1016F000FF038093FE0388E48093000480919F039E
:10170000882331F08091A003811102C00E947702EA
:101710008091A003882309F43EC08091B403811115
:101720003AC08091AC039091AD03E091B103F09188
:10173000B203EE0FFF1FE80FF91F25913491211519
:10174000310509F42AC1A901569547955695479543
:10175000842F20FDCDC08F738093B3038091A303AA
:10176000839F802D11248093B4031092C4031092A0
:10177000C3031092C20381E08093B6038093770184
:101780001092B7038091B1039091B20301969093A8
:10179000B2038093B1038091B603882331F0809126
:1017A000B403811114C10E944E0280910004882369
:1017B00009F452C08C3008F0F1C13CE0381B398389
:1017C000FF24F394F092D0031092E8031092E903FF
:1017D0004091CD034D831981141B042F0D5F4DE201
:1017E000410F2EE463E088EC93E00E94EB075D81FB
:1017F00054505D83105D252F41E0612F80E50E94EC
:1018000042072D8142E0612F83E00E944207F0925F
:10181000E803F092E9038091CD0363E0680F9981BA
:10182000981B892F835D0E94B10784E08093D103C8
:101830008091CD03A981A81BA15DA093D2036091E3
:10184000FE037091FF0388EC93E00E94D302809125
:101850000004815080930004809196039091970337
:10186000892BE1F0B1E0B093E8031092E903909185
:10187000CC0385E5891B8093D1031092D20360913C
:101880009303613009F4F7C108F48AC1809192038F
:10189000653008F007C26B5F8111FFC10E949A0397
:1018A0008091CE0381110EC0EAE7F1E088EF91E06C
:1018B000DF019C011D9221503040E1F71092D103CD
:1018C0001092D2030E94FE046093F5037093F60316
:1018D0008093F7039093F8032091F1033091F20382
:1018E000621B730B7093F0036093EF0380E0B0CE44
:1018F000C901E6E096958795EA95E1F78F71932FF8
:1019000096959695969590514F70423099F1D0F4F6
:10191000442309F43CC04130B9F1E091B103F091A6
:10192000B2033196F093B203E093B103CF01880F75
:10193000991FE091AC03F091AD03E80FF91F2591D9
:10194000349101CF433061F0443039F72091A30343
:10195000289F802D11248093BC039093BD03DDCF7D
:101960002091A303289F802D11248093BA03909384
:10197000BB03D3CF2091A303289F802D11248093F4
:10198000B8039093B903C9CF0E94A002C6CF8B3091
:1019900008F08AE08093B503C0CF2091B0032111F5
:1019A00010C01092A00380919F03811103C00E9478
:1019B0004E02F1CE0E9477028091B1039091B20362
:1019C000B6CF1092B2031092B103FC01B8CF815090
:1019D0008093B4038091C403811142C02091C2035B
:1019E0003091C3032F5F3F4FC901880F991FE091CA
:1019F000BE03F091BF03E80FF91F85919491482F22
:101A000047704093C503492F469546954093C603BA
:101A1000AC0164E0569547956A95E1F74F73909154
:101A2000A303499F402D11244093C40383FB8827BF
:101A300080F9809372013093C3032093C203809195
:101A4000C00390E02817390758F02091C1032223E2
:101A500009F49EC0821B91099093C3038093C20333
:101A60008091C40381508093C4038091B70331E017
:101A7000380F3093B7034091B3032091C603240F6E
:101A80008091AB03280F2093A1036091BA036623D2
:101A900071F070E0832F032E000C990B0E945119F6
:101AA0008091BB03869F200D11242093A103809178
:101AB000A10390E0849664E270E00E945119809343
:101AC000A1032091B5032093A2036091B80366237C
:101AD00081F0062E000C770B832F032E000C990B40
:101AE0000E9451198091B903869F200D11242093E3
:101AF000A2036091BC036623A1F0832F330F990BDF
:101B000070E00E945119CB0162E070E00E9451190F
:101B10002091BD039091A203289F900D11249093D2
:101B2000A2034F33C1F18091A2038A300CF089E007
:101B300087FD80E08093A203F894E091A103F0E098
:101B4000EC58FC4FE491E09371012091C703309170
:101B5000A2033203900111244091C5034203C00146
:101B6000439F900D11242091A40302C0880F991F58
:101B70002A95E2F797FF02C081589F4F880F892F5F
:101B8000881F990B809378018093790178940DCE0A
:101B90000E944E0265CF1092A203CECF198210CEC2
:101BA0000E944E021092A00321E02093D003E2EFA6
:101BB000F1E0E491EF5FE093CC03E3EFF1E0E49137
:101BC000EF5FE093CD0384EF91E09093E703809380
:101BD000E60310929703109296031092CE0338EA10
:101BE00039830E94310A8823E1F364EE71E088ECC6
:101BF00093E00E94D302409194035091950370E0CA
:101C000060E02AE088EC93E00E94AF096FEC71E09D
:101C100088EC93E00E94D302698162956F7070E056
:101C200088EC93E00E94FB0964EC71E088EC93E09F
:101C30000E94D30280918F03813009F42FCE498115
:101C4000415049834111CDCF70E060E085E00E94B2
:101C5000580483B7817F846083BF83B7816083BF6B
:101C600083B7816083BF889583B78E7F83BF83B737
:101C70008E7F83BFB6CF8091EB039091EC03A09150
:101C8000ED03B091EE038F709927AA27BB2767E079
:101C90000897A105B10508F068E788EC93E00E9479
:101CA000CC02FCCD882309F4F9CD6FE2F6CF89325E
:101CB00009F024CD0E94780921CD2F923F924F92B6
:101CC0005F926F927F928F929F92AF92BF92CF92CC
:101CD000DF92EF92FF920F931F93CF93DF93382EF3
:101CE000292ED62E1092CE0355245A94412CD0E0A2
:101CF00000E3C0E0CC24C394862E912C0E94310ACC
:101D00008823E1F390918F03002E000C110B91308A
:101D100049F080919003813021F0809191038130CE
:101D2000F9F480E0D091CD03D195DD9DD02D112423
:101D3000D250882381F08CEB91E00E9460025C2EEF
:101D4000C8018D1B9109D7FD939502970CF490C0A3
:101D50004424439432C084EB91E00E946002F0CFAF
:101D60004110EECF80918E038F3F41F08370813020
:101D700029F4CF5F88E993E00E94600280918C0390
:101D80008F3F41F08370813029F4C15088E993E09E
:101D90000E9460028C2F0C2E000C990B881599055F
:101DA00009F464C0C7FF02C0CFEFCD0D8091CD0311
:101DB000D4E0D80F8C9FD01911240D0F111DD7FD21
:101DC0001A9517FF02C00F5F1F4FC80195958795A1
:101DD000182F082F1092D1038093D203C092D00302
:101DE0001092CF03E32CF22CB12CA12C6C2E0C2ED4
:101DF000000C77086A147B0459F483E08093D103C4
:101E00008091CD03912FC89F900D11249093D20300
:101E1000F701859194910E9465098FEFA81AB80A7D
:101E200092E0E90EF11CAD1428F31092E803109231
:101E3000E9038091CD03412FC89F400D11244150EB
:101E400024E560E088EC93E00E949507C092E803E7
:101E5000C092E9038091CD0363E0680FC89F100D25
:101E60001124812F82500E94B10748CFC0E09ECF3D
:101E7000852DDF91CF911F910F91FF90EF90DF9013
:101E8000CF90BF90AF909F908F907F906F905F901A
:101E90004F903F902F900895CF92DF92EF92FF9254
:101EA0001F93CF93DF938091EA03882309F4BAC08C
:101EB00081E08093D0031092CF031092CE03109252
:101EC00092038093E8038093E903C0E2D1E01CE031
:101ED0000E94310A8823E1F3FE01849120EB30E077
:101EE00040E060E088EC93E00E9455051092D10339
:101EF0001093D20360E271E088EC93E00E94D30279
:101F00008091CC03982F990F990F891B8D5A80933C
:101F1000D1038091CD03982F990F990F891B835D71
:101F20008093D2038091EB0384FF68C08CEA90E039
:101F30000E9465098091CC03982F990F990F891BF6
:101F40008D5A8093D1038091D2038F5F8093D20307
:101F50008091A403882309F454C084EA90E00E948D
:101F600065098091CC03982F990F990F891B8D5A81
:101F70008093D1038091D2038F5F8093D2038CE949
:101F800090E00E946509809190038130B1F48091C6
:101F9000A4038F5F6091A50387FD09C0082E000C84
:101FA000990B70E06F5F7F4F0E945119682F60930B
:101FB000A40388E993E00E94600280918F0381303E
:101FC00019F18091EA03482F50E070E060E0C09082
:101FD000EB03D090EC03E090ED03F090EE03C41619
:101FE000D506E606F70610F08F3F71F48091910355
:101FF000813009F06DCF0E9478096ACF88EA90E0BD
:1020000097CF80EA90E0ABCF8FEF8093EA030E94F6
:102010004E021092A0038CEB91E00E94600281E0DE
:1020200080939203DF91CF911F91FF90EF90DF900B
:10203000CF9008951F920F920FB60F9211242F93F5
:102040003F938F939F93AF93BF9380917301909130
:102050007401A0917501B09176013091590123E08E
:10206000230F2D3758F50196A11DB11D209359015D
:102070008093730190937401A0937501B0937601DE
:1020800080915A0190915B01A0915C01B0915D013A
:102090000196A11DB11D80935A0190935B01A093FD
:1020A0005C01B0935D01BF91AF919F918F913F9182
:1020B0002F910F900FBE0F901F90189526E8230FB9
:1020C0000296A11DB11DD2CF1F920F920FB60F9293
:1020D00011242F936F937F938F939F936091780137
:1020E000662349F1809158018F5F80935801909148
:1020F0007101891700F12091770181E02827209351
:1021000077011092580180917201882369F08091C3
:10211000000193E4899F802D1124895B8093000145
:102120000E9445199093790180917901211101C094
:1021300080E08093B4009F918F917F916F912F9158
:102140000F900FBE0F901F901895789484B5826001
:1021500084BD84B5816084BD85B5826085BD85B54B
:10216000816085BD80916E00816080936E001092C9
:102170008100809181008260809381008091810044
:1021800081608093810080918000816080938000D5
:102190008091B10084608093B1008091B000816033
:1021A0008093B00080917A00846080937A0080915F
:1021B0007A00826080937A0080917A0081608093B7
:1021C0007A0080917A00806880937A001092C10032
:1021D00082E38093F90381E090E0A0E0B0E0809397
:1021E000F5039093F603A093F703B093F8038FEFF2
:1021F0008093EA03E0E8F7E7259134912130304CF1
:1022000009F047C2E6E9F7E7E491E093D303E7E991
:10221000F7E7E491E0937E03E8E9F7E7E491E093E0
:102220007F03E9E9F7E78591949190938103809387
:102230008003EBE9F7E78591949190938303809372
:10224000820387E08093A503EEE9F7E7E491E0934A
:10225000A403EFE9F7E7E491E093EA03E0EAF7E7A4
:10226000859194919093970380939603E2EAF7E720
:10227000859194919093990380939803E4EAF7E70A
:102280008591949190939B0380939A03E6EAF7E7F4
:102290008591949190939D0380939C03C1E0C0939A
:1022A0007A036FEF70E085E00E94580488E0809325
:1022B000840389E08093850387E08093860386E02A
:1022C00080938703D4E0D093880382E080938903CE
:1022D00081E180938A030E9411048CE39FE0909334
:1022E000950380939403D0939303C0939E038BE054
:1022F0008093D6038DE08093D50380E18093D7034C
:102300008EE08093D9038FE08093D803C093D003ED
:10231000C093E8031092E903C093CF03E2EFF1E02A
:10232000E491EF5FE093CC03E3EFF1E0E491EF5F42
:10233000E093CD0384EF91E09093E7038093E6036D
:10234000CFB7F89480915E01811127C0E3E1F4E0FA
:102350008491E7E2F4E09491E82FF0E0EE0FFF1FA4
:10236000E15DFE4FA591B491EC91E92321F461E088
:102370008AE00E944D0361E08AE00E94D5038CB59B
:1023800080618CBD8CB580648CBD61E08DE00E9465
:10239000D50361E08BE00E94D50380915E018F5FE1
:1023A00080935E01CFBF8CB58F7D8CBD8CB58C7F4B
:1023B00081608CBD8DB581608DBD8CB58C608CBD10
:1023C00061E08091D6030E94D50361E08091D5033E
:1023D0000E94D50361E08091D7030E94D5038091CC
:1023E000D90318161CF461E00E94D5038091D8032C
:1023F00018161CF461E00E94D5038091D9031816C9
:1024000074F460E00E944D036AE070E080E090E0C8
:102410000E94230561E08091D9030E944D038091C1
:10242000D503082E000C990BFC01E75FFB4FE491EC
:10243000F0E0EE0FFF1FE75CFE4F259134913093E3
:10244000DD032093DC03FC01E35EFB4FE491E093AA
:10245000E3038091D603082E000C990BFC01E75F83
:10246000FB4FE491F0E0EE0FFF1FE75CFE4F25917C
:1024700034913093DB032093DA03FC01E35EFB4FDE
:10248000E491E093E2038091D803082E000C990BAD
:10249000FC01E75FFB4FE491F0E0EE0FFF1FE75C0C
:1024A000FE4F259134913093DF032093DE03FC012E
:1024B000E35EFB4FE491E093E4038091D703082EA1
:1024C000000C990BFC01E75FFB4FE491F0E0EE0F8D
:1024D000FF1FE75CFE4F259134913093E103209379
:1024E000E003FC01E35EFB4FE491E093E50381E24E
:1024F0000E947B0384E10E947B038091D30387FFCA
:1025000003C08FE78093D3038091D30380680E9438
:102510007B0380E20E947B038CE00E947B030E948D
:102520009A0381E08093A30384E08093C7038BE246
:1025300091E09093AF038093AE0380E00E94A002ED
:1025400061E070E083E00E9458048091B100887FD0
:1025500081608093B100F894109280001092810005
:10256000109285001092840088E191E09093890098
:1025700080938800809181008860809381008091A1
:10258000810081608093810080916F0082608093E0
:102590006F0078948091960390919703892B11F0A6
:1025A0000E94C70480919003813009F49FC08091FC
:1025B0009303882309F49AC083E491E00E946002A7
:1025C0000E944C0F10926E0110926D0110929203B6
:1025D0000E94ED081092920381E08093D0030E9444
:1025E000501724E030E040E050E00E94A8176F5FF1
:1025F0007F4F8F4F9F4F709368016093670194E006
:10260000C92ED12C23E0E22EF12C37E2632E712C5F
:1026100045E1A42EB12C5EE4252E312C8824839430
:10262000912C5524539483E0482EC2E0D0E00E94C0
:10263000310A882339F110929203809191038130FD
:1026400079F40E943F091092700110926F018091FD
:102650006D0190916E01892B09F04BC00E944C0FC7
:1026600000916D0110916E010230110509F4EFC067
:1026700008F044C00115110509F483C001301105AB
:1026800009F498C080E090E0892B89F20E94000054
:10269000C8CF9CE39093D30310927E0380937F0373
:1026A00080E293E0909381038093800384ED93E034
:1026B000909383038093820387E08093A5038093A4
:1026C000A4038CEA9DE090939703809396038EED8C
:1026D0009DE0909399038093980384E79EE0909304
:1026E0009B0380939A038CE39FE0D4CD1092A403C4
:1026F00067CF10926E0110926D01B2CF03301105B9
:1027000009F4BBC20430110509F0BCCF8091EB0382
:102710009091EC03A091ED03B091EE0320918F0313
:10272000213009F428C320919003213009F423C3F8
:1027300040915F015091600160916101709162016F
:102740008C019D01041B150B260B370BB901A80149
:102750005092E8035092E903443651056105710532
:1027600008F0EAC28FE18093D1038EE08093D20318
:102770006AE671E088EC93E00E94D30228E931E038
:102780006DC10E943F091092700110926F0162E0CA
:1027900080EB91E00E945D0E8823E1F0813029F00A
:1027A00010926E0110926D016DCFD0926E01C092A9
:1027B0006D0168CF0E943F091092700110926F0165
:1027C00064E088EA91E00E945D0E813051F13CF4B2
:1027D0008823B1F090926E0180926D0153CF8230C8
:1027E00049F18330B9F7F0926C01E0926B01D0921D
:1027F0000601C0920501F0920401E09203010CC0B1
:1028000010926C0110926B01109306010093050168
:102810001093040100930301D0936E01C0936D01E6
:1028200031CF10936C0100936B01D0930601C093DC
:102830000501EECFD0936C01C0936B01F0920601BD
:10284000E0920501D0930401C0930301E5CF5092BB
:10285000D00380918C0381508E3F58F080918D037E
:1028600081508E3F08F001C110936A010093690105
:1028700004C090926A0180926901809167019091F1
:1028800068018130910509F009C18091650190913D
:1028900066012091050130910601820F931F873256
:1028A000910514F087E290E09093660180936501B2
:1028B000B0926401A09263018091010190910201A4
:1028C000019741F410926601109265011092020185
:1028D000109201018091650190916601879721F422
:1028E000F0926E01E0926D01809165019091660118
:1028F00049970D97C8F480916301909164010F97F7
:102900000F9790F48091690190916A01049761F4A6
:1029100080916F01909170018C599F4F909370013D
:1029200080936F010E943F0980916501909166013B
:1029300088970D97C8F480916301909164010F9777
:102940000F9790F48091690190916A01029761F468
:1029500080916F01909170018C599F4F90937001FD
:1029600080936F010E943F098091650190916601FB
:1029700081970C97C8F48091630190916401089746
:102980000C9790F48091690190916A01019761F42C
:1029900080916F01909170018C599F4F90937001BD
:1029A00080936F010E943F098091650190916601BB
:1029B00081970C97C8F480916301909164014997C5
:1029C0000C9790F48091690190916A01039761F4EA
:1029D00080916F01909170018C599F4F909370017D
:1029E00080936F010E943F0960916B0170916C01AF
:1029F00088EC93E00E94FB095092E8035092E903AF
:102A000036E33093D10360916F017091700188ECCF
:102A100093E00E94FB0906E026E04091630160918B
:102A2000650188EC93E00E94EB0780916901909129
:102A30006A01009709F086C05092E8035092E903BA
:102A400028E931E040E165E288EC93E00E94550519
:102A50004092E8034092E90328E831E040E165E272
:102A600088EC93E00E9455050DCE80918E03815035
:102A70008E3F28F4F0926A01E0926901FECE8091C7
:102A80008B0381508E3F28F4D0926A01C092690175
:102A9000F4CE10926A0110926901EFCE8230910556
:102AA00051F52091630130916401409103015091EF
:102AB0000401240F351F2531310514F025E130E0E4
:102AC0003093640120936301709266016092650106
:102AD00020910101309102012130310541F4109221
:102AE0006401109263011092020110920101039798
:102AF00009F077C1EFCE8330910509F047C180918D
:102B00006501909166012091050130910601821BBB
:102B1000930B8732910514F487E290E0909366015D
:102B200080936501B0926401A092630180910101DC
:102B300090910201019709F0CDCE3092660120926A
:102B40006501C4CE81309105F9F45092E8035092AA
:102B5000E90328E731E040E165E288EC93E00E9478
:102B600055054092E8034092E9032EE631E042E148
:102B700062E288EC93E00E9455055092E80350927F
:102B8000E90348E169E229C08230910559F5509284
:102B9000E8035092E90328E731E040E165E288EC80
:102BA00093E00E94550502E021E04AE166E288ECEC
:102BB00093E00E94EB074092E8034092E90301E0B2
:102BC00027E049E16CE288EC93E00E94EB07509229
:102BD000E8035092E90349E16DE288EC93E00E943A
:102BE000680650CD83309105F1F45092E80350927D
:102BF000E90328E731E040E165E288EC93E00E94D8
:102C000055054092E8034092E9032EE631E049E1A0
:102C100062E288EC93E00E9455055092E8035092DE
:102C2000E9034AE1AFCF049709F02CCD5092E803B5
:102C30005092E90328E731E040E165E288EC93E057
:102C40000E94550502E021E04AE16CE288EC93E045
:102C50000E94EB074092E8034092E90301E027E07D
:102C600049E160E288EC93E00E94EB075092E803B0
:102C70005092E90349E165E2B0CF18E11093D10326
:102C80008AE08093D20361E271E088EC93E00E94D5
:102C900056091093D10384E18093D2036BE271E073
:102CA00088EC93E00E94560980916B0190916C0131
:102CB000892B31F462E371E088EC93E00E945609BD
:102CC00080916B0190916C01019731F467E371E0A1
:102CD00088EC93E00E94560980916B0190916C0101
:102CE000029731F46EE371E088EC93E00E9456099C
:102CF00080916B0190916C01039749F48EE0809371
:102D0000D10363E471E088EC93E00E94560988E106
:102D10008093D1038EE18093D2036FE471E088EC5D
:102D200093E00E94560960916F017091700188ECE8
:102D300093E00E94FB09A6CC4A3F5105610571054D
:102D400068F41AE01093D1038EE08093D2036EE50D
:102D500071E088EC93E00E94D30294CC403951405A
:102D60006105710540F48EE08093D1038093D20316
:102D700061E571E0EECF80935F0190936001A093D5
:102D80006101B09362010E94ED087CCC8430910512
:102D900009F0ADCE8091630190916401209103010F
:102DA00030910401821B930B8531910514F485E168
:102DB00090E0909364018093630170926601609249
:102DC00065018091010190910201019751F42AE27D
:102DD00030E030936401209363011092020110925D
:102DE00001018091630190916401459709F07CCDC8
:102DF00077CD1092CB031092CA038FE091E09093AD
:102E0000C9038093C80308958F929F92AF92BF9297
:102E1000CF92DF92EF92FF92CF93DF93EC01688124
:102E200079818A819B81611571058105910521F464
:102E300064E279ED8BE597E02DE133EF41E050E07E
:102E40000E94A81749015A019B01AC01A7EAB1E40D
:102E50000E94C7176B017C01ACEEB4EFA501940191
:102E60000E94D517C60ED71EE81EF91EF7FE06C033
:102E700081E0C81AD108E10880E8F80AC882D9823E
:102E8000EA82FB82C701B6019F77DF91CF91FF9065
:102E9000EF90DF90CF90BF90AF909F908F9008956C
:102EA0008F929F92AF92BF92CF92DF92EF92FF925A
:102EB00060910701709108018091090190910A01C8
:102EC000611571058105910521F464E279ED8BE5C9
:102ED00097E02DE133EF41E050E00E94A81749014F
:102EE0005A019B01AC01A7EAB1E40E94C7176B012C
:102EF0007C01ACEEB4EFA50194010E94D517C60E7B
:102F0000D71EE81EF91EF7FE06C081E0C81AD108D8
:102F1000E10880E8F80AC0920701D0920801E09227
:102F20000901F0920A01C701B6019F77FF90EF9067
:102F3000DF90CF90BF90AF909F908F900895609357
:102F40000701709308018093090190930A01089585
:102F5000052E97FB1EF400940E94BF1757FD07D063
:102F60000E94DA1707FC03D04EF40C94BF1750955B
:102F70004095309521953F4F4F4F5F4F0895909565
:102F80008095709561957F4F8F4F9F4F08950E9458
:102F9000FC17A59F900DB49F900DA49F800D911DCF
:102FA00011240895B7FF0C94C7170E94C717821BFE
:102FB000930B0895A1E21A2EAA1BBB1BFD010DC0A5
:102FC000AA1FBB1FEE1FFF1FA217B307E407F507D9
:102FD00020F0A21BB30BE40BF50B661F771F881FB5
:102FE000991F1A9469F760957095809590959B014B
:102FF000AC01BD01CF010895A29FB001B39FC001F4
:10300000A39F700D811D1124911DB29F700D811D14
:103010001124911D08950E947F1888F09F5798F001
:10302000B92F9927B751B0F0E1F0660F771F881FCD
:10303000991F1AF0BA95C9F714C0B13091F00E94E7
:103040009918B1E008950C949918672F782F882764
:10305000B85F39F0B93FCCF3869577956795B3950E
:10306000D9F73EF490958095709561957F4F8F4F7D
:103070009F4F0895E89409C097FB3EF49095809582
:10308000709561957F4F8F4F9F4F9923A9F0F92F2E
:1030900096E9BB279395F695879577956795B795AC
:1030A000F111F8CFFAF4BB0F11F460FF1BC06F5F92
:1030B0007F4F8F4F9F4F16C0882311F096E911C0A4
:1030C000772321F09EE8872F762F05C0662371F0C5
:1030D00096E8862F70E060E02AF09A95660F771FD9
:1030E000881FDAF7880F9695879597F9089557FD09
:1030F0009058440F551F59F05F3F71F04795880F66
:1031000097FB991F61F09F3F79F0879508951216FC
:1031100013061406551FF2CF4695F1DF08C01616A8
:1031200017061806991FF1CF869571056105089459
:103130000895E894BB2766277727CB0197F9089570
:103140000E94B3180C9424190E94161938F00E949A
:103150001D1920F0952311F00C940D190C941319DE
:1031600011240C949A180E94771870F3959FC1F35C
:10317000950F50E0551F629FF001729FBB27F00D25
:10318000B11D639FAA27F00DB11DAA1F649F66277A
:10319000B00DA11D661F829F2227B00DA11D621FC9
:1031A000739FB00DA11D621F839FA00D611D221F83
:1031B000749F3327A00D611D231F849F600D211D67
:1031C000822F762F6A2F11249F5750409AF0F1F0EA
:1031D00088234AF0EE0FFF1FBB1F661F771F881F53
:1031E00091505040A9F79E3F510580F00C940D1965
:1031F0000C949A185F3FE4F3983ED4F38695779544
:103200006795B795F795E7959F5FC1F7FE2B880FF8
:10321000911D9695879597F9089597F99F6780E88E
:1032200070E060E008959FEF80EC089500240A9418
:103230001616170618060906089500240A94121691
:103240001306140605060895092E0394000C11F4C4
:10325000882352F0BB0F40F4BF2B11F460FF04C071
:103260006F5F7F4F8F4F9F4F0895DB018F939F9329
:103270000E94C717BF91AF91A29F800D911DA39F80
:10328000900DB29F900D11240895991B79E004C010
:10329000991F961708F0961B881F7A95C9F7809595
:1032A000089597FB072E16F4009407D077FD09D0F8
:1032B0000E94651907FC05D03EF4909581959F4FBB
:1032C0000895709561957F4F0895AA1BBB1B51E12E
:1032D00007C0AA1FBB1FA617B70710F0A61BB70B86
:1032E000881F991F5A95A9F780959095BC01CD012B
:1032F0000895EE0FFF1F0590F491E02D0994F894C6
:02330000FFCFFD
:10330200010100020003000100000000000000149F
:1033120008F702EA08E9080D0A004C4F41444552F9
:103322000047414D45204F564552004D6F64653A66
:10333200200045617379004D656469756D004861CF
:103342007264004576656E2048617264657200534E
:08335200636F72653A20000070
:00000001FF
